{
	"task1/Voting.sol": {
		"Voting": {
			"abi": [
				{
					"inputs": [
						{
							"internalType": "uint256",
							"name": "",
							"type": "uint256"
						}
					],
					"name": "addressArr",
					"outputs": [
						{
							"internalType": "address",
							"name": "",
							"type": "address"
						}
					],
					"stateMutability": "view",
					"type": "function"
				},
				{
					"inputs": [
						{
							"internalType": "address",
							"name": "",
							"type": "address"
						}
					],
					"name": "exist",
					"outputs": [
						{
							"internalType": "bool",
							"name": "",
							"type": "bool"
						}
					],
					"stateMutability": "view",
					"type": "function"
				},
				{
					"inputs": [
						{
							"internalType": "address",
							"name": "addr",
							"type": "address"
						}
					],
					"name": "getVotes",
					"outputs": [
						{
							"internalType": "uint256",
							"name": "",
							"type": "uint256"
						}
					],
					"stateMutability": "view",
					"type": "function"
				},
				{
					"inputs": [],
					"name": "resetVotes",
					"outputs": [
						{
							"internalType": "string",
							"name": "",
							"type": "string"
						}
					],
					"stateMutability": "nonpayable",
					"type": "function"
				},
				{
					"inputs": [
						{
							"internalType": "address",
							"name": "addr",
							"type": "address"
						},
						{
							"internalType": "uint256",
							"name": "acount",
							"type": "uint256"
						}
					],
					"name": "vote",
					"outputs": [
						{
							"internalType": "string",
							"name": "",
							"type": "string"
						}
					],
					"stateMutability": "nonpayable",
					"type": "function"
				},
				{
					"inputs": [
						{
							"internalType": "address",
							"name": "",
							"type": "address"
						}
					],
					"name": "votes",
					"outputs": [
						{
							"internalType": "uint256",
							"name": "acount",
							"type": "uint256"
						}
					],
					"stateMutability": "view",
					"type": "function"
				}
			],
			"devdoc": {
				"kind": "dev",
				"methods": {},
				"version": 1
			},
			"evm": {
				"assembly": "    /* \"task1/Voting.sol\":355:1168  contract Voting{... */\n  mstore(0x40, 0x80)\n  callvalue\n  dup1\n  iszero\n  tag_1\n  jumpi\n  revert(0x00, 0x00)\ntag_1:\n  pop\n  dataSize(sub_0)\n  dup1\n  dataOffset(sub_0)\n  0x00\n  codecopy\n  0x00\n  return\nstop\n\nsub_0: assembly {\n        /* \"task1/Voting.sol\":355:1168  contract Voting{... */\n      mstore(0x40, 0x80)\n      callvalue\n      dup1\n      iszero\n      tag_1\n      jumpi\n      revert(0x00, 0x00)\n    tag_1:\n      pop\n      jumpi(tag_2, lt(calldatasize, 0x04))\n      shr(0xe0, calldataload(0x00))\n      dup1\n      0x4dfefc4b\n      eq\n      tag_3\n      jumpi\n      dup1\n      0x5f74bbde\n      eq\n      tag_4\n      jumpi\n      dup1\n      0x9ab24eb0\n      eq\n      tag_5\n      jumpi\n      dup1\n      0xac6ab9ed\n      eq\n      tag_6\n      jumpi\n      dup1\n      0xb9830ff1\n      eq\n      tag_7\n      jumpi\n      dup1\n      0xd8bff5a5\n      eq\n      tag_8\n      jumpi\n    tag_2:\n      revert(0x00, 0x00)\n        /* \"task1/Voting.sol\":432:471  mapping (address => bool ) public exist */\n    tag_3:\n      tag_9\n      0x04\n      dup1\n      calldatasize\n      sub\n      dup2\n      add\n      swap1\n      tag_10\n      swap2\n      swap1\n      tag_11\n      jump\t// in\n    tag_10:\n      tag_12\n      jump\t// in\n    tag_9:\n      mload(0x40)\n      tag_13\n      swap2\n      swap1\n      tag_14\n      jump\t// in\n    tag_13:\n      mload(0x40)\n      dup1\n      swap2\n      sub\n      swap1\n      return\n        /* \"task1/Voting.sol\":516:784  function vote(address addr, uint256 acount ) public returns (string memory)  {... */\n    tag_4:\n      tag_15\n      0x04\n      dup1\n      calldatasize\n      sub\n      dup2\n      add\n      swap1\n      tag_16\n      swap2\n      swap1\n      tag_17\n      jump\t// in\n    tag_16:\n      tag_18\n      jump\t// in\n    tag_15:\n      mload(0x40)\n      tag_19\n      swap2\n      swap1\n      tag_20\n      jump\t// in\n    tag_19:\n      mload(0x40)\n      dup1\n      swap2\n      sub\n      swap1\n      return\n        /* \"task1/Voting.sol\":790:888  function getVotes(address addr) public view returns(uint256) {... */\n    tag_5:\n      tag_21\n      0x04\n      dup1\n      calldatasize\n      sub\n      dup2\n      add\n      swap1\n      tag_22\n      swap2\n      swap1\n      tag_11\n      jump\t// in\n    tag_22:\n      tag_23\n      jump\t// in\n    tag_21:\n      mload(0x40)\n      tag_24\n      swap2\n      swap1\n      tag_25\n      jump\t// in\n    tag_24:\n      mload(0x40)\n      dup1\n      swap2\n      sub\n      swap1\n      return\n        /* \"task1/Voting.sol\":478:505  address[] public addressArr */\n    tag_6:\n      tag_26\n      0x04\n      dup1\n      calldatasize\n      sub\n      dup2\n      add\n      swap1\n      tag_27\n      swap2\n      swap1\n      tag_28\n      jump\t// in\n    tag_27:\n      tag_29\n      jump\t// in\n    tag_26:\n      mload(0x40)\n      tag_30\n      swap2\n      swap1\n      tag_31\n      jump\t// in\n    tag_30:\n      mload(0x40)\n      dup1\n      swap2\n      sub\n      swap1\n      return\n        /* \"task1/Voting.sol\":896:1165  function resetVotes() public returns (string memory) {... */\n    tag_7:\n      tag_32\n      tag_33\n      jump\t// in\n    tag_32:\n      mload(0x40)\n      tag_34\n      swap2\n      swap1\n      tag_20\n      jump\t// in\n    tag_34:\n      mload(0x40)\n      dup1\n      swap2\n      sub\n      swap1\n      return\n        /* \"task1/Voting.sol\":377:425  mapping (address => uint256 acount) public votes */\n    tag_8:\n      tag_35\n      0x04\n      dup1\n      calldatasize\n      sub\n      dup2\n      add\n      swap1\n      tag_36\n      swap2\n      swap1\n      tag_11\n      jump\t// in\n    tag_36:\n      tag_37\n      jump\t// in\n    tag_35:\n      mload(0x40)\n      tag_38\n      swap2\n      swap1\n      tag_25\n      jump\t// in\n    tag_38:\n      mload(0x40)\n      dup1\n      swap2\n      sub\n      swap1\n      return\n        /* \"task1/Voting.sol\":432:471  mapping (address => bool ) public exist */\n    tag_12:\n      mstore(0x20, 0x01)\n      dup1\n      0x00\n      mstore\n      keccak256(0x00, 0x40)\n      0x00\n      swap2\n      pop\n      sload\n      swap1\n      0x0100\n      exp\n      swap1\n      div\n      0xff\n      and\n      dup2\n      jump\t// out\n        /* \"task1/Voting.sol\":516:784  function vote(address addr, uint256 acount ) public returns (string memory)  {... */\n    tag_18:\n        /* \"task1/Voting.sol\":577:590  string memory */\n      0x60\n        /* \"task1/Voting.sol\":619:624  exist */\n      0x01\n        /* \"task1/Voting.sol\":619:630  exist[addr] */\n      0x00\n        /* \"task1/Voting.sol\":625:629  addr */\n      dup5\n        /* \"task1/Voting.sol\":619:630  exist[addr] */\n      0xffffffffffffffffffffffffffffffffffffffff\n      and\n      0xffffffffffffffffffffffffffffffffffffffff\n      and\n      dup2\n      mstore\n      0x20\n      add\n      swap1\n      dup2\n      mstore\n      0x20\n      add\n      0x00\n      keccak256\n      0x00\n      swap1\n      sload\n      swap1\n      0x0100\n      exp\n      swap1\n      div\n      0xff\n      and\n        /* \"task1/Voting.sol\":614:713  if (!exist[addr]) {... */\n      tag_40\n      jumpi\n        /* \"task1/Voting.sol\":647:657  addressArr */\n      0x02\n        /* \"task1/Voting.sol\":663:667  addr */\n      dup4\n        /* \"task1/Voting.sol\":647:668  addressArr.push(addr) */\n      swap1\n      dup1\n      0x01\n      dup2\n      sload\n      add\n      dup1\n      dup3\n      sstore\n      dup1\n      swap2\n      pop\n      pop\n      0x01\n      swap1\n      sub\n      swap1\n      0x00\n      mstore\n      keccak256(0x00, 0x20)\n      add\n      0x00\n      swap1\n      swap2\n      swap1\n      swap2\n      swap1\n      swap2\n      0x0100\n      exp\n      dup2\n      sload\n      dup2\n      0xffffffffffffffffffffffffffffffffffffffff\n      mul\n      not\n      and\n      swap1\n      dup4\n      0xffffffffffffffffffffffffffffffffffffffff\n      and\n      mul\n      or\n      swap1\n      sstore\n      pop\n        /* \"task1/Voting.sol\":697:701  true */\n      0x01\n        /* \"task1/Voting.sol\":683:688  exist */\n      dup1\n        /* \"task1/Voting.sol\":683:694  exist[addr] */\n      0x00\n        /* \"task1/Voting.sol\":689:693  addr */\n      dup6\n        /* \"task1/Voting.sol\":683:694  exist[addr] */\n      0xffffffffffffffffffffffffffffffffffffffff\n      and\n      0xffffffffffffffffffffffffffffffffffffffff\n      and\n      dup2\n      mstore\n      0x20\n      add\n      swap1\n      dup2\n      mstore\n      0x20\n      add\n      0x00\n      keccak256\n      0x00\n        /* \"task1/Voting.sol\":683:701  exist[addr] = true */\n      0x0100\n      exp\n      dup2\n      sload\n      dup2\n      0xff\n      mul\n      not\n      and\n      swap1\n      dup4\n      iszero\n      iszero\n      mul\n      or\n      swap1\n      sstore\n      pop\n        /* \"task1/Voting.sol\":614:713  if (!exist[addr]) {... */\n    tag_40:\n        /* \"task1/Voting.sol\":738:744  acount */\n      dup2\n        /* \"task1/Voting.sol\":723:728  votes */\n      0x00\n        /* \"task1/Voting.sol\":723:734  votes[addr] */\n      0x00\n        /* \"task1/Voting.sol\":729:733  addr */\n      dup6\n        /* \"task1/Voting.sol\":723:734  votes[addr] */\n      0xffffffffffffffffffffffffffffffffffffffff\n      and\n      0xffffffffffffffffffffffffffffffffffffffff\n      and\n      dup2\n      mstore\n      0x20\n      add\n      swap1\n      dup2\n      mstore\n      0x20\n      add\n      0x00\n      keccak256\n      0x00\n        /* \"task1/Voting.sol\":723:744  votes[addr] += acount */\n      dup3\n      dup3\n      sload\n      tag_42\n      swap2\n      swap1\n      tag_43\n      jump\t// in\n    tag_42:\n      swap3\n      pop\n      pop\n      dup2\n      swap1\n      sstore\n      pop\n        /* \"task1/Voting.sol\":755:776  return \"success info\" */\n      mload(0x40)\n      dup1\n      0x40\n      add\n      0x40\n      mstore\n      dup1\n      0x0c\n      dup2\n      mstore\n      0x20\n      add\n      0x7375636365737320696e666f0000000000000000000000000000000000000000\n      dup2\n      mstore\n      pop\n      swap1\n      pop\n        /* \"task1/Voting.sol\":516:784  function vote(address addr, uint256 acount ) public returns (string memory)  {... */\n      swap3\n      swap2\n      pop\n      pop\n      jump\t// out\n        /* \"task1/Voting.sol\":790:888  function getVotes(address addr) public view returns(uint256) {... */\n    tag_23:\n        /* \"task1/Voting.sol\":842:849  uint256 */\n      0x00\n        /* \"task1/Voting.sol\":869:874  votes */\n      0x00\n        /* \"task1/Voting.sol\":869:880  votes[addr] */\n      0x00\n        /* \"task1/Voting.sol\":875:879  addr */\n      dup4\n        /* \"task1/Voting.sol\":869:880  votes[addr] */\n      0xffffffffffffffffffffffffffffffffffffffff\n      and\n      0xffffffffffffffffffffffffffffffffffffffff\n      and\n      dup2\n      mstore\n      0x20\n      add\n      swap1\n      dup2\n      mstore\n      0x20\n      add\n      0x00\n      keccak256\n      sload\n        /* \"task1/Voting.sol\":862:880  return votes[addr] */\n      swap1\n      pop\n        /* \"task1/Voting.sol\":790:888  function getVotes(address addr) public view returns(uint256) {... */\n      swap2\n      swap1\n      pop\n      jump\t// out\n        /* \"task1/Voting.sol\":478:505  address[] public addressArr */\n    tag_29:\n      0x02\n      dup2\n      dup2\n      sload\n      dup2\n      lt\n      tag_45\n      jumpi\n      0x00\n      dup1\n      revert\n    tag_45:\n      swap1\n      0x00\n      mstore\n      keccak256(0x00, 0x20)\n      add\n      0x00\n      swap2\n      pop\n      sload\n      swap1\n      0x0100\n      exp\n      swap1\n      div\n      0xffffffffffffffffffffffffffffffffffffffff\n      and\n      dup2\n      jump\t// out\n        /* \"task1/Voting.sol\":896:1165  function resetVotes() public returns (string memory) {... */\n    tag_33:\n        /* \"task1/Voting.sol\":934:947  string memory */\n      0x60\n        /* \"task1/Voting.sol\":964:973  uint256 i */\n      0x00\n        /* \"task1/Voting.sol\":960:1099  for(uint256 i; i < addressArr.length; i ++) {... */\n    tag_48:\n        /* \"task1/Voting.sol\":979:989  addressArr */\n      0x02\n        /* \"task1/Voting.sol\":979:996  addressArr.length */\n      dup1\n      sload\n      swap1\n      pop\n        /* \"task1/Voting.sol\":975:976  i */\n      dup2\n        /* \"task1/Voting.sol\":975:996  i < addressArr.length */\n      lt\n        /* \"task1/Voting.sol\":960:1099  for(uint256 i; i < addressArr.length; i ++) {... */\n      iszero\n      tag_49\n      jumpi\n        /* \"task1/Voting.sol\":1025:1030  votes */\n      0x00\n        /* \"task1/Voting.sol\":1025:1045  votes[addressArr[i]] */\n      0x00\n        /* \"task1/Voting.sol\":1031:1041  addressArr */\n      0x02\n        /* \"task1/Voting.sol\":1042:1043  i */\n      dup4\n        /* \"task1/Voting.sol\":1031:1044  addressArr[i] */\n      dup2\n      sload\n      dup2\n      lt\n      tag_51\n      jumpi\n      tag_52\n      tag_53\n      jump\t// in\n    tag_52:\n    tag_51:\n      swap1\n      0x00\n      mstore\n      keccak256(0x00, 0x20)\n      add\n      0x00\n      swap1\n      sload\n      swap1\n      0x0100\n      exp\n      swap1\n      div\n      0xffffffffffffffffffffffffffffffffffffffff\n      and\n        /* \"task1/Voting.sol\":1025:1045  votes[addressArr[i]] */\n      0xffffffffffffffffffffffffffffffffffffffff\n      and\n      0xffffffffffffffffffffffffffffffffffffffff\n      and\n      dup2\n      mstore\n      0x20\n      add\n      swap1\n      dup2\n      mstore\n      0x20\n      add\n      0x00\n      keccak256\n        /* \"task1/Voting.sol\":1018:1045  delete votes[addressArr[i]] */\n      0x00\n      swap1\n      sstore\n        /* \"task1/Voting.sol\":1082:1087  false */\n      0x00\n        /* \"task1/Voting.sol\":1059:1064  exist */\n      0x01\n        /* \"task1/Voting.sol\":1059:1079  exist[addressArr[i]] */\n      0x00\n        /* \"task1/Voting.sol\":1065:1075  addressArr */\n      0x02\n        /* \"task1/Voting.sol\":1076:1077  i */\n      dup5\n        /* \"task1/Voting.sol\":1065:1078  addressArr[i] */\n      dup2\n      sload\n      dup2\n      lt\n      tag_55\n      jumpi\n      tag_56\n      tag_53\n      jump\t// in\n    tag_56:\n    tag_55:\n      swap1\n      0x00\n      mstore\n      keccak256(0x00, 0x20)\n      add\n      0x00\n      swap1\n      sload\n      swap1\n      0x0100\n      exp\n      swap1\n      div\n      0xffffffffffffffffffffffffffffffffffffffff\n      and\n        /* \"task1/Voting.sol\":1059:1079  exist[addressArr[i]] */\n      0xffffffffffffffffffffffffffffffffffffffff\n      and\n      0xffffffffffffffffffffffffffffffffffffffff\n      and\n      dup2\n      mstore\n      0x20\n      add\n      swap1\n      dup2\n      mstore\n      0x20\n      add\n      0x00\n      keccak256\n      0x00\n        /* \"task1/Voting.sol\":1059:1087  exist[addressArr[i]] = false */\n      0x0100\n      exp\n      dup2\n      sload\n      dup2\n      0xff\n      mul\n      not\n      and\n      swap1\n      dup4\n      iszero\n      iszero\n      mul\n      or\n      swap1\n      sstore\n      pop\n        /* \"task1/Voting.sol\":998:1002  i ++ */\n      dup1\n      dup1\n      0x01\n      add\n      swap2\n      pop\n      pop\n        /* \"task1/Voting.sol\":960:1099  for(uint256 i; i < addressArr.length; i ++) {... */\n      jump(tag_48)\n    tag_49:\n      pop\n        /* \"task1/Voting.sol\":1116:1126  addressArr */\n      0x02\n      0x00\n        /* \"task1/Voting.sol\":1109:1126  delete addressArr */\n      tag_58\n      swap2\n      swap1\n      tag_59\n      jump\t// in\n    tag_58:\n        /* \"task1/Voting.sol\":1137:1157  return \"sucessfully\" */\n      mload(0x40)\n      dup1\n      0x40\n      add\n      0x40\n      mstore\n      dup1\n      0x0b\n      dup2\n      mstore\n      0x20\n      add\n      0x73756365737366756c6c79000000000000000000000000000000000000000000\n      dup2\n      mstore\n      pop\n      swap1\n      pop\n        /* \"task1/Voting.sol\":896:1165  function resetVotes() public returns (string memory) {... */\n      swap1\n      jump\t// out\n        /* \"task1/Voting.sol\":377:425  mapping (address => uint256 acount) public votes */\n    tag_37:\n      mstore(0x20, 0x00)\n      dup1\n      0x00\n      mstore\n      keccak256(0x00, 0x40)\n      0x00\n      swap2\n      pop\n      swap1\n      pop\n      sload\n      dup2\n      jump\t// out\n    tag_59:\n      pop\n      dup1\n      sload\n      0x00\n      dup3\n      sstore\n      swap1\n      0x00\n      mstore\n      keccak256(0x00, 0x20)\n      swap1\n      dup2\n      add\n      swap1\n      tag_61\n      swap2\n      swap1\n      tag_62\n      jump\t// in\n    tag_61:\n      pop\n      jump\t// out\n    tag_62:\n    tag_63:\n      dup1\n      dup3\n      gt\n      iszero\n      tag_64\n      jumpi\n      0x00\n      dup2\n      0x00\n      swap1\n      sstore\n      pop\n      0x01\n      add\n      jump(tag_63)\n    tag_64:\n      pop\n      swap1\n      jump\t// out\n        /* \"#utility.yul\":88:205   */\n    tag_66:\n        /* \"#utility.yul\":197:198   */\n      0x00\n        /* \"#utility.yul\":194:195   */\n      0x00\n        /* \"#utility.yul\":187:199   */\n      revert\n        /* \"#utility.yul\":334:460   */\n    tag_68:\n        /* \"#utility.yul\":371:378   */\n      0x00\n        /* \"#utility.yul\":411:453   */\n      0xffffffffffffffffffffffffffffffffffffffff\n        /* \"#utility.yul\":404:409   */\n      dup3\n        /* \"#utility.yul\":400:454   */\n      and\n        /* \"#utility.yul\":389:454   */\n      swap1\n      pop\n        /* \"#utility.yul\":334:460   */\n      swap2\n      swap1\n      pop\n      jump\t// out\n        /* \"#utility.yul\":466:562   */\n    tag_69:\n        /* \"#utility.yul\":503:510   */\n      0x00\n        /* \"#utility.yul\":532:556   */\n      tag_91\n        /* \"#utility.yul\":550:555   */\n      dup3\n        /* \"#utility.yul\":532:556   */\n      tag_68\n      jump\t// in\n    tag_91:\n        /* \"#utility.yul\":521:556   */\n      swap1\n      pop\n        /* \"#utility.yul\":466:562   */\n      swap2\n      swap1\n      pop\n      jump\t// out\n        /* \"#utility.yul\":568:690   */\n    tag_70:\n        /* \"#utility.yul\":641:665   */\n      tag_93\n        /* \"#utility.yul\":659:664   */\n      dup2\n        /* \"#utility.yul\":641:665   */\n      tag_69\n      jump\t// in\n    tag_93:\n        /* \"#utility.yul\":634:639   */\n      dup2\n        /* \"#utility.yul\":631:666   */\n      eq\n        /* \"#utility.yul\":621:684   */\n      tag_94\n      jumpi\n        /* \"#utility.yul\":680:681   */\n      0x00\n        /* \"#utility.yul\":677:678   */\n      0x00\n        /* \"#utility.yul\":670:682   */\n      revert\n        /* \"#utility.yul\":621:684   */\n    tag_94:\n        /* \"#utility.yul\":568:690   */\n      pop\n      jump\t// out\n        /* \"#utility.yul\":696:835   */\n    tag_71:\n        /* \"#utility.yul\":742:747   */\n      0x00\n        /* \"#utility.yul\":780:786   */\n      dup2\n        /* \"#utility.yul\":767:787   */\n      calldataload\n        /* \"#utility.yul\":758:787   */\n      swap1\n      pop\n        /* \"#utility.yul\":796:829   */\n      tag_96\n        /* \"#utility.yul\":823:828   */\n      dup2\n        /* \"#utility.yul\":796:829   */\n      tag_70\n      jump\t// in\n    tag_96:\n        /* \"#utility.yul\":696:835   */\n      swap3\n      swap2\n      pop\n      pop\n      jump\t// out\n        /* \"#utility.yul\":841:1170   */\n    tag_11:\n        /* \"#utility.yul\":900:906   */\n      0x00\n        /* \"#utility.yul\":949:951   */\n      0x20\n        /* \"#utility.yul\":937:946   */\n      dup3\n        /* \"#utility.yul\":928:935   */\n      dup5\n        /* \"#utility.yul\":924:947   */\n      sub\n        /* \"#utility.yul\":920:952   */\n      slt\n        /* \"#utility.yul\":917:1036   */\n      iszero\n      tag_98\n      jumpi\n        /* \"#utility.yul\":955:1034   */\n      tag_99\n      tag_66\n      jump\t// in\n    tag_99:\n        /* \"#utility.yul\":917:1036   */\n    tag_98:\n        /* \"#utility.yul\":1075:1076   */\n      0x00\n        /* \"#utility.yul\":1100:1153   */\n      tag_100\n        /* \"#utility.yul\":1145:1152   */\n      dup5\n        /* \"#utility.yul\":1136:1142   */\n      dup3\n        /* \"#utility.yul\":1125:1134   */\n      dup6\n        /* \"#utility.yul\":1121:1143   */\n      add\n        /* \"#utility.yul\":1100:1153   */\n      tag_71\n      jump\t// in\n    tag_100:\n        /* \"#utility.yul\":1090:1153   */\n      swap2\n      pop\n        /* \"#utility.yul\":1046:1163   */\n      pop\n        /* \"#utility.yul\":841:1170   */\n      swap3\n      swap2\n      pop\n      pop\n      jump\t// out\n        /* \"#utility.yul\":1176:1266   */\n    tag_72:\n        /* \"#utility.yul\":1210:1217   */\n      0x00\n        /* \"#utility.yul\":1253:1258   */\n      dup2\n        /* \"#utility.yul\":1246:1259   */\n      iszero\n        /* \"#utility.yul\":1239:1260   */\n      iszero\n        /* \"#utility.yul\":1228:1260   */\n      swap1\n      pop\n        /* \"#utility.yul\":1176:1266   */\n      swap2\n      swap1\n      pop\n      jump\t// out\n        /* \"#utility.yul\":1272:1381   */\n    tag_73:\n        /* \"#utility.yul\":1353:1374   */\n      tag_103\n        /* \"#utility.yul\":1368:1373   */\n      dup2\n        /* \"#utility.yul\":1353:1374   */\n      tag_72\n      jump\t// in\n    tag_103:\n        /* \"#utility.yul\":1348:1351   */\n      dup3\n        /* \"#utility.yul\":1341:1375   */\n      mstore\n        /* \"#utility.yul\":1272:1381   */\n      pop\n      pop\n      jump\t// out\n        /* \"#utility.yul\":1387:1597   */\n    tag_14:\n        /* \"#utility.yul\":1474:1478   */\n      0x00\n        /* \"#utility.yul\":1512:1514   */\n      0x20\n        /* \"#utility.yul\":1501:1510   */\n      dup3\n        /* \"#utility.yul\":1497:1515   */\n      add\n        /* \"#utility.yul\":1489:1515   */\n      swap1\n      pop\n        /* \"#utility.yul\":1525:1590   */\n      tag_105\n        /* \"#utility.yul\":1587:1588   */\n      0x00\n        /* \"#utility.yul\":1576:1585   */\n      dup4\n        /* \"#utility.yul\":1572:1589   */\n      add\n        /* \"#utility.yul\":1563:1569   */\n      dup5\n        /* \"#utility.yul\":1525:1590   */\n      tag_73\n      jump\t// in\n    tag_105:\n        /* \"#utility.yul\":1387:1597   */\n      swap3\n      swap2\n      pop\n      pop\n      jump\t// out\n        /* \"#utility.yul\":1603:1680   */\n    tag_74:\n        /* \"#utility.yul\":1640:1647   */\n      0x00\n        /* \"#utility.yul\":1669:1674   */\n      dup2\n        /* \"#utility.yul\":1658:1674   */\n      swap1\n      pop\n        /* \"#utility.yul\":1603:1680   */\n      swap2\n      swap1\n      pop\n      jump\t// out\n        /* \"#utility.yul\":1686:1808   */\n    tag_75:\n        /* \"#utility.yul\":1759:1783   */\n      tag_108\n        /* \"#utility.yul\":1777:1782   */\n      dup2\n        /* \"#utility.yul\":1759:1783   */\n      tag_74\n      jump\t// in\n    tag_108:\n        /* \"#utility.yul\":1752:1757   */\n      dup2\n        /* \"#utility.yul\":1749:1784   */\n      eq\n        /* \"#utility.yul\":1739:1802   */\n      tag_109\n      jumpi\n        /* \"#utility.yul\":1798:1799   */\n      0x00\n        /* \"#utility.yul\":1795:1796   */\n      0x00\n        /* \"#utility.yul\":1788:1800   */\n      revert\n        /* \"#utility.yul\":1739:1802   */\n    tag_109:\n        /* \"#utility.yul\":1686:1808   */\n      pop\n      jump\t// out\n        /* \"#utility.yul\":1814:1953   */\n    tag_76:\n        /* \"#utility.yul\":1860:1865   */\n      0x00\n        /* \"#utility.yul\":1898:1904   */\n      dup2\n        /* \"#utility.yul\":1885:1905   */\n      calldataload\n        /* \"#utility.yul\":1876:1905   */\n      swap1\n      pop\n        /* \"#utility.yul\":1914:1947   */\n      tag_111\n        /* \"#utility.yul\":1941:1946   */\n      dup2\n        /* \"#utility.yul\":1914:1947   */\n      tag_75\n      jump\t// in\n    tag_111:\n        /* \"#utility.yul\":1814:1953   */\n      swap3\n      swap2\n      pop\n      pop\n      jump\t// out\n        /* \"#utility.yul\":1959:2433   */\n    tag_17:\n        /* \"#utility.yul\":2027:2033   */\n      0x00\n        /* \"#utility.yul\":2035:2041   */\n      0x00\n        /* \"#utility.yul\":2084:2086   */\n      0x40\n        /* \"#utility.yul\":2072:2081   */\n      dup4\n        /* \"#utility.yul\":2063:2070   */\n      dup6\n        /* \"#utility.yul\":2059:2082   */\n      sub\n        /* \"#utility.yul\":2055:2087   */\n      slt\n        /* \"#utility.yul\":2052:2171   */\n      iszero\n      tag_113\n      jumpi\n        /* \"#utility.yul\":2090:2169   */\n      tag_114\n      tag_66\n      jump\t// in\n    tag_114:\n        /* \"#utility.yul\":2052:2171   */\n    tag_113:\n        /* \"#utility.yul\":2210:2211   */\n      0x00\n        /* \"#utility.yul\":2235:2288   */\n      tag_115\n        /* \"#utility.yul\":2280:2287   */\n      dup6\n        /* \"#utility.yul\":2271:2277   */\n      dup3\n        /* \"#utility.yul\":2260:2269   */\n      dup7\n        /* \"#utility.yul\":2256:2278   */\n      add\n        /* \"#utility.yul\":2235:2288   */\n      tag_71\n      jump\t// in\n    tag_115:\n        /* \"#utility.yul\":2225:2288   */\n      swap3\n      pop\n        /* \"#utility.yul\":2181:2298   */\n      pop\n        /* \"#utility.yul\":2337:2339   */\n      0x20\n        /* \"#utility.yul\":2363:2416   */\n      tag_116\n        /* \"#utility.yul\":2408:2415   */\n      dup6\n        /* \"#utility.yul\":2399:2405   */\n      dup3\n        /* \"#utility.yul\":2388:2397   */\n      dup7\n        /* \"#utility.yul\":2384:2406   */\n      add\n        /* \"#utility.yul\":2363:2416   */\n      tag_76\n      jump\t// in\n    tag_116:\n        /* \"#utility.yul\":2353:2416   */\n      swap2\n      pop\n        /* \"#utility.yul\":2308:2426   */\n      pop\n        /* \"#utility.yul\":1959:2433   */\n      swap3\n      pop\n      swap3\n      swap1\n      pop\n      jump\t// out\n        /* \"#utility.yul\":2439:2538   */\n    tag_77:\n        /* \"#utility.yul\":2491:2497   */\n      0x00\n        /* \"#utility.yul\":2525:2530   */\n      dup2\n        /* \"#utility.yul\":2519:2531   */\n      mload\n        /* \"#utility.yul\":2509:2531   */\n      swap1\n      pop\n        /* \"#utility.yul\":2439:2538   */\n      swap2\n      swap1\n      pop\n      jump\t// out\n        /* \"#utility.yul\":2544:2713   */\n    tag_78:\n        /* \"#utility.yul\":2628:2639   */\n      0x00\n        /* \"#utility.yul\":2662:2668   */\n      dup3\n        /* \"#utility.yul\":2657:2660   */\n      dup3\n        /* \"#utility.yul\":2650:2669   */\n      mstore\n        /* \"#utility.yul\":2702:2706   */\n      0x20\n        /* \"#utility.yul\":2697:2700   */\n      dup3\n        /* \"#utility.yul\":2693:2707   */\n      add\n        /* \"#utility.yul\":2678:2707   */\n      swap1\n      pop\n        /* \"#utility.yul\":2544:2713   */\n      swap3\n      swap2\n      pop\n      pop\n      jump\t// out\n        /* \"#utility.yul\":2719:2858   */\n    tag_79:\n        /* \"#utility.yul\":2808:2814   */\n      dup3\n        /* \"#utility.yul\":2803:2806   */\n      dup2\n        /* \"#utility.yul\":2798:2801   */\n      dup4\n        /* \"#utility.yul\":2792:2815   */\n      mcopy\n        /* \"#utility.yul\":2849:2850   */\n      0x00\n        /* \"#utility.yul\":2840:2846   */\n      dup4\n        /* \"#utility.yul\":2835:2838   */\n      dup4\n        /* \"#utility.yul\":2831:2847   */\n      add\n        /* \"#utility.yul\":2824:2851   */\n      mstore\n        /* \"#utility.yul\":2719:2858   */\n      pop\n      pop\n      pop\n      jump\t// out\n        /* \"#utility.yul\":2864:2966   */\n    tag_80:\n        /* \"#utility.yul\":2905:2911   */\n      0x00\n        /* \"#utility.yul\":2956:2958   */\n      0x1f\n        /* \"#utility.yul\":2952:2959   */\n      not\n        /* \"#utility.yul\":2947:2949   */\n      0x1f\n        /* \"#utility.yul\":2940:2945   */\n      dup4\n        /* \"#utility.yul\":2936:2950   */\n      add\n        /* \"#utility.yul\":2932:2960   */\n      and\n        /* \"#utility.yul\":2922:2960   */\n      swap1\n      pop\n        /* \"#utility.yul\":2864:2966   */\n      swap2\n      swap1\n      pop\n      jump\t// out\n        /* \"#utility.yul\":2972:3349   */\n    tag_81:\n        /* \"#utility.yul\":3060:3063   */\n      0x00\n        /* \"#utility.yul\":3088:3127   */\n      tag_122\n        /* \"#utility.yul\":3121:3126   */\n      dup3\n        /* \"#utility.yul\":3088:3127   */\n      tag_77\n      jump\t// in\n    tag_122:\n        /* \"#utility.yul\":3143:3214   */\n      tag_123\n        /* \"#utility.yul\":3207:3213   */\n      dup2\n        /* \"#utility.yul\":3202:3205   */\n      dup6\n        /* \"#utility.yul\":3143:3214   */\n      tag_78\n      jump\t// in\n    tag_123:\n        /* \"#utility.yul\":3136:3214   */\n      swap4\n      pop\n        /* \"#utility.yul\":3223:3288   */\n      tag_124\n        /* \"#utility.yul\":3281:3287   */\n      dup2\n        /* \"#utility.yul\":3276:3279   */\n      dup6\n        /* \"#utility.yul\":3269:3273   */\n      0x20\n        /* \"#utility.yul\":3262:3267   */\n      dup7\n        /* \"#utility.yul\":3258:3274   */\n      add\n        /* \"#utility.yul\":3223:3288   */\n      tag_79\n      jump\t// in\n    tag_124:\n        /* \"#utility.yul\":3313:3342   */\n      tag_125\n        /* \"#utility.yul\":3335:3341   */\n      dup2\n        /* \"#utility.yul\":3313:3342   */\n      tag_80\n      jump\t// in\n    tag_125:\n        /* \"#utility.yul\":3308:3311   */\n      dup5\n        /* \"#utility.yul\":3304:3343   */\n      add\n        /* \"#utility.yul\":3297:3343   */\n      swap2\n      pop\n        /* \"#utility.yul\":3064:3349   */\n      pop\n        /* \"#utility.yul\":2972:3349   */\n      swap3\n      swap2\n      pop\n      pop\n      jump\t// out\n        /* \"#utility.yul\":3355:3668   */\n    tag_20:\n        /* \"#utility.yul\":3468:3472   */\n      0x00\n        /* \"#utility.yul\":3506:3508   */\n      0x20\n        /* \"#utility.yul\":3495:3504   */\n      dup3\n        /* \"#utility.yul\":3491:3509   */\n      add\n        /* \"#utility.yul\":3483:3509   */\n      swap1\n      pop\n        /* \"#utility.yul\":3555:3564   */\n      dup2\n        /* \"#utility.yul\":3549:3553   */\n      dup2\n        /* \"#utility.yul\":3545:3565   */\n      sub\n        /* \"#utility.yul\":3541:3542   */\n      0x00\n        /* \"#utility.yul\":3530:3539   */\n      dup4\n        /* \"#utility.yul\":3526:3543   */\n      add\n        /* \"#utility.yul\":3519:3566   */\n      mstore\n        /* \"#utility.yul\":3583:3661   */\n      tag_127\n        /* \"#utility.yul\":3656:3660   */\n      dup2\n        /* \"#utility.yul\":3647:3653   */\n      dup5\n        /* \"#utility.yul\":3583:3661   */\n      tag_81\n      jump\t// in\n    tag_127:\n        /* \"#utility.yul\":3575:3661   */\n      swap1\n      pop\n        /* \"#utility.yul\":3355:3668   */\n      swap3\n      swap2\n      pop\n      pop\n      jump\t// out\n        /* \"#utility.yul\":3674:3792   */\n    tag_82:\n        /* \"#utility.yul\":3761:3785   */\n      tag_129\n        /* \"#utility.yul\":3779:3784   */\n      dup2\n        /* \"#utility.yul\":3761:3785   */\n      tag_74\n      jump\t// in\n    tag_129:\n        /* \"#utility.yul\":3756:3759   */\n      dup3\n        /* \"#utility.yul\":3749:3786   */\n      mstore\n        /* \"#utility.yul\":3674:3792   */\n      pop\n      pop\n      jump\t// out\n        /* \"#utility.yul\":3798:4020   */\n    tag_25:\n        /* \"#utility.yul\":3891:3895   */\n      0x00\n        /* \"#utility.yul\":3929:3931   */\n      0x20\n        /* \"#utility.yul\":3918:3927   */\n      dup3\n        /* \"#utility.yul\":3914:3932   */\n      add\n        /* \"#utility.yul\":3906:3932   */\n      swap1\n      pop\n        /* \"#utility.yul\":3942:4013   */\n      tag_131\n        /* \"#utility.yul\":4010:4011   */\n      0x00\n        /* \"#utility.yul\":3999:4008   */\n      dup4\n        /* \"#utility.yul\":3995:4012   */\n      add\n        /* \"#utility.yul\":3986:3992   */\n      dup5\n        /* \"#utility.yul\":3942:4013   */\n      tag_82\n      jump\t// in\n    tag_131:\n        /* \"#utility.yul\":3798:4020   */\n      swap3\n      swap2\n      pop\n      pop\n      jump\t// out\n        /* \"#utility.yul\":4026:4355   */\n    tag_28:\n        /* \"#utility.yul\":4085:4091   */\n      0x00\n        /* \"#utility.yul\":4134:4136   */\n      0x20\n        /* \"#utility.yul\":4122:4131   */\n      dup3\n        /* \"#utility.yul\":4113:4120   */\n      dup5\n        /* \"#utility.yul\":4109:4132   */\n      sub\n        /* \"#utility.yul\":4105:4137   */\n      slt\n        /* \"#utility.yul\":4102:4221   */\n      iszero\n      tag_133\n      jumpi\n        /* \"#utility.yul\":4140:4219   */\n      tag_134\n      tag_66\n      jump\t// in\n    tag_134:\n        /* \"#utility.yul\":4102:4221   */\n    tag_133:\n        /* \"#utility.yul\":4260:4261   */\n      0x00\n        /* \"#utility.yul\":4285:4338   */\n      tag_135\n        /* \"#utility.yul\":4330:4337   */\n      dup5\n        /* \"#utility.yul\":4321:4327   */\n      dup3\n        /* \"#utility.yul\":4310:4319   */\n      dup6\n        /* \"#utility.yul\":4306:4328   */\n      add\n        /* \"#utility.yul\":4285:4338   */\n      tag_76\n      jump\t// in\n    tag_135:\n        /* \"#utility.yul\":4275:4338   */\n      swap2\n      pop\n        /* \"#utility.yul\":4231:4348   */\n      pop\n        /* \"#utility.yul\":4026:4355   */\n      swap3\n      swap2\n      pop\n      pop\n      jump\t// out\n        /* \"#utility.yul\":4361:4479   */\n    tag_83:\n        /* \"#utility.yul\":4448:4472   */\n      tag_137\n        /* \"#utility.yul\":4466:4471   */\n      dup2\n        /* \"#utility.yul\":4448:4472   */\n      tag_69\n      jump\t// in\n    tag_137:\n        /* \"#utility.yul\":4443:4446   */\n      dup3\n        /* \"#utility.yul\":4436:4473   */\n      mstore\n        /* \"#utility.yul\":4361:4479   */\n      pop\n      pop\n      jump\t// out\n        /* \"#utility.yul\":4485:4707   */\n    tag_31:\n        /* \"#utility.yul\":4578:4582   */\n      0x00\n        /* \"#utility.yul\":4616:4618   */\n      0x20\n        /* \"#utility.yul\":4605:4614   */\n      dup3\n        /* \"#utility.yul\":4601:4619   */\n      add\n        /* \"#utility.yul\":4593:4619   */\n      swap1\n      pop\n        /* \"#utility.yul\":4629:4700   */\n      tag_139\n        /* \"#utility.yul\":4697:4698   */\n      0x00\n        /* \"#utility.yul\":4686:4695   */\n      dup4\n        /* \"#utility.yul\":4682:4699   */\n      add\n        /* \"#utility.yul\":4673:4679   */\n      dup5\n        /* \"#utility.yul\":4629:4700   */\n      tag_83\n      jump\t// in\n    tag_139:\n        /* \"#utility.yul\":4485:4707   */\n      swap3\n      swap2\n      pop\n      pop\n      jump\t// out\n        /* \"#utility.yul\":4713:4893   */\n    tag_84:\n        /* \"#utility.yul\":4761:4838   */\n      0x4e487b7100000000000000000000000000000000000000000000000000000000\n        /* \"#utility.yul\":4758:4759   */\n      0x00\n        /* \"#utility.yul\":4751:4839   */\n      mstore\n        /* \"#utility.yul\":4858:4862   */\n      0x11\n        /* \"#utility.yul\":4855:4856   */\n      0x04\n        /* \"#utility.yul\":4848:4863   */\n      mstore\n        /* \"#utility.yul\":4882:4886   */\n      0x24\n        /* \"#utility.yul\":4879:4880   */\n      0x00\n        /* \"#utility.yul\":4872:4887   */\n      revert\n        /* \"#utility.yul\":4899:5090   */\n    tag_43:\n        /* \"#utility.yul\":4939:4942   */\n      0x00\n        /* \"#utility.yul\":4958:4978   */\n      tag_142\n        /* \"#utility.yul\":4976:4977   */\n      dup3\n        /* \"#utility.yul\":4958:4978   */\n      tag_74\n      jump\t// in\n    tag_142:\n        /* \"#utility.yul\":4953:4978   */\n      swap2\n      pop\n        /* \"#utility.yul\":4992:5012   */\n      tag_143\n        /* \"#utility.yul\":5010:5011   */\n      dup4\n        /* \"#utility.yul\":4992:5012   */\n      tag_74\n      jump\t// in\n    tag_143:\n        /* \"#utility.yul\":4987:5012   */\n      swap3\n      pop\n        /* \"#utility.yul\":5035:5036   */\n      dup3\n        /* \"#utility.yul\":5032:5033   */\n      dup3\n        /* \"#utility.yul\":5028:5037   */\n      add\n        /* \"#utility.yul\":5021:5037   */\n      swap1\n      pop\n        /* \"#utility.yul\":5056:5059   */\n      dup1\n        /* \"#utility.yul\":5053:5054   */\n      dup3\n        /* \"#utility.yul\":5050:5060   */\n      gt\n        /* \"#utility.yul\":5047:5083   */\n      iszero\n      tag_144\n      jumpi\n        /* \"#utility.yul\":5063:5081   */\n      tag_145\n      tag_84\n      jump\t// in\n    tag_145:\n        /* \"#utility.yul\":5047:5083   */\n    tag_144:\n        /* \"#utility.yul\":4899:5090   */\n      swap3\n      swap2\n      pop\n      pop\n      jump\t// out\n        /* \"#utility.yul\":5096:5276   */\n    tag_53:\n        /* \"#utility.yul\":5144:5221   */\n      0x4e487b7100000000000000000000000000000000000000000000000000000000\n        /* \"#utility.yul\":5141:5142   */\n      0x00\n        /* \"#utility.yul\":5134:5222   */\n      mstore\n        /* \"#utility.yul\":5241:5245   */\n      0x32\n        /* \"#utility.yul\":5238:5239   */\n      0x04\n        /* \"#utility.yul\":5231:5246   */\n      mstore\n        /* \"#utility.yul\":5265:5269   */\n      0x24\n        /* \"#utility.yul\":5262:5263   */\n      0x00\n        /* \"#utility.yul\":5255:5270   */\n      revert\n\n    auxdata: 0xa2646970667358221220aaa19883aba63df4d89201a0b7636cc1bfca67e51dd6f201bf88ae32b530482b64736f6c634300081e0033\n}\n",
				"bytecode": {
					"linkReferences": {},
					"object": "6080604052348015600e575f5ffd5b5061085c8061001c5f395ff3fe608060405234801561000f575f5ffd5b5060043610610060575f3560e01c80634dfefc4b146100645780635f74bbde146100945780639ab24eb0146100c4578063ac6ab9ed146100f4578063b9830ff114610124578063d8bff5a514610142575b5f5ffd5b61007e600480360381019061007991906105bf565b610172565b60405161008b9190610604565b60405180910390f35b6100ae60048036038101906100a99190610650565b61018f565b6040516100bb91906106fe565b60405180910390f35b6100de60048036038101906100d991906105bf565b610324565b6040516100eb919061072d565b60405180910390f35b61010e60048036038101906101099190610746565b610369565b60405161011b9190610780565b60405180910390f35b61012c6103a4565b60405161013991906106fe565b60405180910390f35b61015c600480360381019061015791906105bf565b610514565b604051610169919061072d565b60405180910390f35b6001602052805f5260405f205f915054906101000a900460ff1681565b606060015f8473ffffffffffffffffffffffffffffffffffffffff1673ffffffffffffffffffffffffffffffffffffffff1681526020019081526020015f205f9054906101000a900460ff1661029457600283908060018154018082558091505060019003905f5260205f20015f9091909190916101000a81548173ffffffffffffffffffffffffffffffffffffffff021916908373ffffffffffffffffffffffffffffffffffffffff1602179055506001805f8573ffffffffffffffffffffffffffffffffffffffff1673ffffffffffffffffffffffffffffffffffffffff1681526020019081526020015f205f6101000a81548160ff0219169083151502179055505b815f5f8573ffffffffffffffffffffffffffffffffffffffff1673ffffffffffffffffffffffffffffffffffffffff1681526020019081526020015f205f8282546102df91906107c6565b925050819055506040518060400160405280600c81526020017f7375636365737320696e666f0000000000000000000000000000000000000000815250905092915050565b5f5f5f8373ffffffffffffffffffffffffffffffffffffffff1673ffffffffffffffffffffffffffffffffffffffff1681526020019081526020015f20549050919050565b60028181548110610378575f80fd5b905f5260205f20015f915054906101000a900473ffffffffffffffffffffffffffffffffffffffff1681565b60605f5b6002805490508110156104cb575f5f600283815481106103cb576103ca6107f9565b5b905f5260205f20015f9054906101000a900473ffffffffffffffffffffffffffffffffffffffff1673ffffffffffffffffffffffffffffffffffffffff1673ffffffffffffffffffffffffffffffffffffffff1681526020019081526020015f205f90555f60015f60028481548110610447576104466107f9565b5b905f5260205f20015f9054906101000a900473ffffffffffffffffffffffffffffffffffffffff1673ffffffffffffffffffffffffffffffffffffffff1673ffffffffffffffffffffffffffffffffffffffff1681526020019081526020015f205f6101000a81548160ff02191690831515021790555080806001019150506103a8565b5060025f6104d99190610528565b6040518060400160405280600b81526020017f73756365737366756c6c79000000000000000000000000000000000000000000815250905090565b5f602052805f5260405f205f915090505481565b5080545f8255905f5260205f20908101906105439190610546565b50565b5b8082111561055d575f815f905550600101610547565b5090565b5f5ffd5b5f73ffffffffffffffffffffffffffffffffffffffff82169050919050565b5f61058e82610565565b9050919050565b61059e81610584565b81146105a8575f5ffd5b50565b5f813590506105b981610595565b92915050565b5f602082840312156105d4576105d3610561565b5b5f6105e1848285016105ab565b91505092915050565b5f8115159050919050565b6105fe816105ea565b82525050565b5f6020820190506106175f8301846105f5565b92915050565b5f819050919050565b61062f8161061d565b8114610639575f5ffd5b50565b5f8135905061064a81610626565b92915050565b5f5f6040838503121561066657610665610561565b5b5f610673858286016105ab565b92505060206106848582860161063c565b9150509250929050565b5f81519050919050565b5f82825260208201905092915050565b8281835e5f83830152505050565b5f601f19601f8301169050919050565b5f6106d08261068e565b6106da8185610698565b93506106ea8185602086016106a8565b6106f3816106b6565b840191505092915050565b5f6020820190508181035f83015261071681846106c6565b905092915050565b6107278161061d565b82525050565b5f6020820190506107405f83018461071e565b92915050565b5f6020828403121561075b5761075a610561565b5b5f6107688482850161063c565b91505092915050565b61077a81610584565b82525050565b5f6020820190506107935f830184610771565b92915050565b7f4e487b71000000000000000000000000000000000000000000000000000000005f52601160045260245ffd5b5f6107d08261061d565b91506107db8361061d565b92508282019050808211156107f3576107f2610799565b5b92915050565b7f4e487b71000000000000000000000000000000000000000000000000000000005f52603260045260245ffdfea2646970667358221220aaa19883aba63df4d89201a0b7636cc1bfca67e51dd6f201bf88ae32b530482b64736f6c634300081e0033",
					"opcodes": "PUSH1 0x80 PUSH1 0x40 MSTORE CALLVALUE DUP1 ISZERO PUSH1 0xE JUMPI PUSH0 PUSH0 REVERT JUMPDEST POP PUSH2 0x85C DUP1 PUSH2 0x1C PUSH0 CODECOPY PUSH0 RETURN INVALID PUSH1 0x80 PUSH1 0x40 MSTORE CALLVALUE DUP1 ISZERO PUSH2 0xF JUMPI PUSH0 PUSH0 REVERT JUMPDEST POP PUSH1 0x4 CALLDATASIZE LT PUSH2 0x60 JUMPI PUSH0 CALLDATALOAD PUSH1 0xE0 SHR DUP1 PUSH4 0x4DFEFC4B EQ PUSH2 0x64 JUMPI DUP1 PUSH4 0x5F74BBDE EQ PUSH2 0x94 JUMPI DUP1 PUSH4 0x9AB24EB0 EQ PUSH2 0xC4 JUMPI DUP1 PUSH4 0xAC6AB9ED EQ PUSH2 0xF4 JUMPI DUP1 PUSH4 0xB9830FF1 EQ PUSH2 0x124 JUMPI DUP1 PUSH4 0xD8BFF5A5 EQ PUSH2 0x142 JUMPI JUMPDEST PUSH0 PUSH0 REVERT JUMPDEST PUSH2 0x7E PUSH1 0x4 DUP1 CALLDATASIZE SUB DUP2 ADD SWAP1 PUSH2 0x79 SWAP2 SWAP1 PUSH2 0x5BF JUMP JUMPDEST PUSH2 0x172 JUMP JUMPDEST PUSH1 0x40 MLOAD PUSH2 0x8B SWAP2 SWAP1 PUSH2 0x604 JUMP JUMPDEST PUSH1 0x40 MLOAD DUP1 SWAP2 SUB SWAP1 RETURN JUMPDEST PUSH2 0xAE PUSH1 0x4 DUP1 CALLDATASIZE SUB DUP2 ADD SWAP1 PUSH2 0xA9 SWAP2 SWAP1 PUSH2 0x650 JUMP JUMPDEST PUSH2 0x18F JUMP JUMPDEST PUSH1 0x40 MLOAD PUSH2 0xBB SWAP2 SWAP1 PUSH2 0x6FE JUMP JUMPDEST PUSH1 0x40 MLOAD DUP1 SWAP2 SUB SWAP1 RETURN JUMPDEST PUSH2 0xDE PUSH1 0x4 DUP1 CALLDATASIZE SUB DUP2 ADD SWAP1 PUSH2 0xD9 SWAP2 SWAP1 PUSH2 0x5BF JUMP JUMPDEST PUSH2 0x324 JUMP JUMPDEST PUSH1 0x40 MLOAD PUSH2 0xEB SWAP2 SWAP1 PUSH2 0x72D JUMP JUMPDEST PUSH1 0x40 MLOAD DUP1 SWAP2 SUB SWAP1 RETURN JUMPDEST PUSH2 0x10E PUSH1 0x4 DUP1 CALLDATASIZE SUB DUP2 ADD SWAP1 PUSH2 0x109 SWAP2 SWAP1 PUSH2 0x746 JUMP JUMPDEST PUSH2 0x369 JUMP JUMPDEST PUSH1 0x40 MLOAD PUSH2 0x11B SWAP2 SWAP1 PUSH2 0x780 JUMP JUMPDEST PUSH1 0x40 MLOAD DUP1 SWAP2 SUB SWAP1 RETURN JUMPDEST PUSH2 0x12C PUSH2 0x3A4 JUMP JUMPDEST PUSH1 0x40 MLOAD PUSH2 0x139 SWAP2 SWAP1 PUSH2 0x6FE JUMP JUMPDEST PUSH1 0x40 MLOAD DUP1 SWAP2 SUB SWAP1 RETURN JUMPDEST PUSH2 0x15C PUSH1 0x4 DUP1 CALLDATASIZE SUB DUP2 ADD SWAP1 PUSH2 0x157 SWAP2 SWAP1 PUSH2 0x5BF JUMP JUMPDEST PUSH2 0x514 JUMP JUMPDEST PUSH1 0x40 MLOAD PUSH2 0x169 SWAP2 SWAP1 PUSH2 0x72D JUMP JUMPDEST PUSH1 0x40 MLOAD DUP1 SWAP2 SUB SWAP1 RETURN JUMPDEST PUSH1 0x1 PUSH1 0x20 MSTORE DUP1 PUSH0 MSTORE PUSH1 0x40 PUSH0 KECCAK256 PUSH0 SWAP2 POP SLOAD SWAP1 PUSH2 0x100 EXP SWAP1 DIV PUSH1 0xFF AND DUP2 JUMP JUMPDEST PUSH1 0x60 PUSH1 0x1 PUSH0 DUP5 PUSH20 0xFFFFFFFFFFFFFFFFFFFFFFFFFFFFFFFFFFFFFFFF AND PUSH20 0xFFFFFFFFFFFFFFFFFFFFFFFFFFFFFFFFFFFFFFFF AND DUP2 MSTORE PUSH1 0x20 ADD SWAP1 DUP2 MSTORE PUSH1 0x20 ADD PUSH0 KECCAK256 PUSH0 SWAP1 SLOAD SWAP1 PUSH2 0x100 EXP SWAP1 DIV PUSH1 0xFF AND PUSH2 0x294 JUMPI PUSH1 0x2 DUP4 SWAP1 DUP1 PUSH1 0x1 DUP2 SLOAD ADD DUP1 DUP3 SSTORE DUP1 SWAP2 POP POP PUSH1 0x1 SWAP1 SUB SWAP1 PUSH0 MSTORE PUSH1 0x20 PUSH0 KECCAK256 ADD PUSH0 SWAP1 SWAP2 SWAP1 SWAP2 SWAP1 SWAP2 PUSH2 0x100 EXP DUP2 SLOAD DUP2 PUSH20 0xFFFFFFFFFFFFFFFFFFFFFFFFFFFFFFFFFFFFFFFF MUL NOT AND SWAP1 DUP4 PUSH20 0xFFFFFFFFFFFFFFFFFFFFFFFFFFFFFFFFFFFFFFFF AND MUL OR SWAP1 SSTORE POP PUSH1 0x1 DUP1 PUSH0 DUP6 PUSH20 0xFFFFFFFFFFFFFFFFFFFFFFFFFFFFFFFFFFFFFFFF AND PUSH20 0xFFFFFFFFFFFFFFFFFFFFFFFFFFFFFFFFFFFFFFFF AND DUP2 MSTORE PUSH1 0x20 ADD SWAP1 DUP2 MSTORE PUSH1 0x20 ADD PUSH0 KECCAK256 PUSH0 PUSH2 0x100 EXP DUP2 SLOAD DUP2 PUSH1 0xFF MUL NOT AND SWAP1 DUP4 ISZERO ISZERO MUL OR SWAP1 SSTORE POP JUMPDEST DUP2 PUSH0 PUSH0 DUP6 PUSH20 0xFFFFFFFFFFFFFFFFFFFFFFFFFFFFFFFFFFFFFFFF AND PUSH20 0xFFFFFFFFFFFFFFFFFFFFFFFFFFFFFFFFFFFFFFFF AND DUP2 MSTORE PUSH1 0x20 ADD SWAP1 DUP2 MSTORE PUSH1 0x20 ADD PUSH0 KECCAK256 PUSH0 DUP3 DUP3 SLOAD PUSH2 0x2DF SWAP2 SWAP1 PUSH2 0x7C6 JUMP JUMPDEST SWAP3 POP POP DUP2 SWAP1 SSTORE POP PUSH1 0x40 MLOAD DUP1 PUSH1 0x40 ADD PUSH1 0x40 MSTORE DUP1 PUSH1 0xC DUP2 MSTORE PUSH1 0x20 ADD PUSH32 0x7375636365737320696E666F0000000000000000000000000000000000000000 DUP2 MSTORE POP SWAP1 POP SWAP3 SWAP2 POP POP JUMP JUMPDEST PUSH0 PUSH0 PUSH0 DUP4 PUSH20 0xFFFFFFFFFFFFFFFFFFFFFFFFFFFFFFFFFFFFFFFF AND PUSH20 0xFFFFFFFFFFFFFFFFFFFFFFFFFFFFFFFFFFFFFFFF AND DUP2 MSTORE PUSH1 0x20 ADD SWAP1 DUP2 MSTORE PUSH1 0x20 ADD PUSH0 KECCAK256 SLOAD SWAP1 POP SWAP2 SWAP1 POP JUMP JUMPDEST PUSH1 0x2 DUP2 DUP2 SLOAD DUP2 LT PUSH2 0x378 JUMPI PUSH0 DUP1 REVERT JUMPDEST SWAP1 PUSH0 MSTORE PUSH1 0x20 PUSH0 KECCAK256 ADD PUSH0 SWAP2 POP SLOAD SWAP1 PUSH2 0x100 EXP SWAP1 DIV PUSH20 0xFFFFFFFFFFFFFFFFFFFFFFFFFFFFFFFFFFFFFFFF AND DUP2 JUMP JUMPDEST PUSH1 0x60 PUSH0 JUMPDEST PUSH1 0x2 DUP1 SLOAD SWAP1 POP DUP2 LT ISZERO PUSH2 0x4CB JUMPI PUSH0 PUSH0 PUSH1 0x2 DUP4 DUP2 SLOAD DUP2 LT PUSH2 0x3CB JUMPI PUSH2 0x3CA PUSH2 0x7F9 JUMP JUMPDEST JUMPDEST SWAP1 PUSH0 MSTORE PUSH1 0x20 PUSH0 KECCAK256 ADD PUSH0 SWAP1 SLOAD SWAP1 PUSH2 0x100 EXP SWAP1 DIV PUSH20 0xFFFFFFFFFFFFFFFFFFFFFFFFFFFFFFFFFFFFFFFF AND PUSH20 0xFFFFFFFFFFFFFFFFFFFFFFFFFFFFFFFFFFFFFFFF AND PUSH20 0xFFFFFFFFFFFFFFFFFFFFFFFFFFFFFFFFFFFFFFFF AND DUP2 MSTORE PUSH1 0x20 ADD SWAP1 DUP2 MSTORE PUSH1 0x20 ADD PUSH0 KECCAK256 PUSH0 SWAP1 SSTORE PUSH0 PUSH1 0x1 PUSH0 PUSH1 0x2 DUP5 DUP2 SLOAD DUP2 LT PUSH2 0x447 JUMPI PUSH2 0x446 PUSH2 0x7F9 JUMP JUMPDEST JUMPDEST SWAP1 PUSH0 MSTORE PUSH1 0x20 PUSH0 KECCAK256 ADD PUSH0 SWAP1 SLOAD SWAP1 PUSH2 0x100 EXP SWAP1 DIV PUSH20 0xFFFFFFFFFFFFFFFFFFFFFFFFFFFFFFFFFFFFFFFF AND PUSH20 0xFFFFFFFFFFFFFFFFFFFFFFFFFFFFFFFFFFFFFFFF AND PUSH20 0xFFFFFFFFFFFFFFFFFFFFFFFFFFFFFFFFFFFFFFFF AND DUP2 MSTORE PUSH1 0x20 ADD SWAP1 DUP2 MSTORE PUSH1 0x20 ADD PUSH0 KECCAK256 PUSH0 PUSH2 0x100 EXP DUP2 SLOAD DUP2 PUSH1 0xFF MUL NOT AND SWAP1 DUP4 ISZERO ISZERO MUL OR SWAP1 SSTORE POP DUP1 DUP1 PUSH1 0x1 ADD SWAP2 POP POP PUSH2 0x3A8 JUMP JUMPDEST POP PUSH1 0x2 PUSH0 PUSH2 0x4D9 SWAP2 SWAP1 PUSH2 0x528 JUMP JUMPDEST PUSH1 0x40 MLOAD DUP1 PUSH1 0x40 ADD PUSH1 0x40 MSTORE DUP1 PUSH1 0xB DUP2 MSTORE PUSH1 0x20 ADD PUSH32 0x73756365737366756C6C79000000000000000000000000000000000000000000 DUP2 MSTORE POP SWAP1 POP SWAP1 JUMP JUMPDEST PUSH0 PUSH1 0x20 MSTORE DUP1 PUSH0 MSTORE PUSH1 0x40 PUSH0 KECCAK256 PUSH0 SWAP2 POP SWAP1 POP SLOAD DUP2 JUMP JUMPDEST POP DUP1 SLOAD PUSH0 DUP3 SSTORE SWAP1 PUSH0 MSTORE PUSH1 0x20 PUSH0 KECCAK256 SWAP1 DUP2 ADD SWAP1 PUSH2 0x543 SWAP2 SWAP1 PUSH2 0x546 JUMP JUMPDEST POP JUMP JUMPDEST JUMPDEST DUP1 DUP3 GT ISZERO PUSH2 0x55D JUMPI PUSH0 DUP2 PUSH0 SWAP1 SSTORE POP PUSH1 0x1 ADD PUSH2 0x547 JUMP JUMPDEST POP SWAP1 JUMP JUMPDEST PUSH0 PUSH0 REVERT JUMPDEST PUSH0 PUSH20 0xFFFFFFFFFFFFFFFFFFFFFFFFFFFFFFFFFFFFFFFF DUP3 AND SWAP1 POP SWAP2 SWAP1 POP JUMP JUMPDEST PUSH0 PUSH2 0x58E DUP3 PUSH2 0x565 JUMP JUMPDEST SWAP1 POP SWAP2 SWAP1 POP JUMP JUMPDEST PUSH2 0x59E DUP2 PUSH2 0x584 JUMP JUMPDEST DUP2 EQ PUSH2 0x5A8 JUMPI PUSH0 PUSH0 REVERT JUMPDEST POP JUMP JUMPDEST PUSH0 DUP2 CALLDATALOAD SWAP1 POP PUSH2 0x5B9 DUP2 PUSH2 0x595 JUMP JUMPDEST SWAP3 SWAP2 POP POP JUMP JUMPDEST PUSH0 PUSH1 0x20 DUP3 DUP5 SUB SLT ISZERO PUSH2 0x5D4 JUMPI PUSH2 0x5D3 PUSH2 0x561 JUMP JUMPDEST JUMPDEST PUSH0 PUSH2 0x5E1 DUP5 DUP3 DUP6 ADD PUSH2 0x5AB JUMP JUMPDEST SWAP2 POP POP SWAP3 SWAP2 POP POP JUMP JUMPDEST PUSH0 DUP2 ISZERO ISZERO SWAP1 POP SWAP2 SWAP1 POP JUMP JUMPDEST PUSH2 0x5FE DUP2 PUSH2 0x5EA JUMP JUMPDEST DUP3 MSTORE POP POP JUMP JUMPDEST PUSH0 PUSH1 0x20 DUP3 ADD SWAP1 POP PUSH2 0x617 PUSH0 DUP4 ADD DUP5 PUSH2 0x5F5 JUMP JUMPDEST SWAP3 SWAP2 POP POP JUMP JUMPDEST PUSH0 DUP2 SWAP1 POP SWAP2 SWAP1 POP JUMP JUMPDEST PUSH2 0x62F DUP2 PUSH2 0x61D JUMP JUMPDEST DUP2 EQ PUSH2 0x639 JUMPI PUSH0 PUSH0 REVERT JUMPDEST POP JUMP JUMPDEST PUSH0 DUP2 CALLDATALOAD SWAP1 POP PUSH2 0x64A DUP2 PUSH2 0x626 JUMP JUMPDEST SWAP3 SWAP2 POP POP JUMP JUMPDEST PUSH0 PUSH0 PUSH1 0x40 DUP4 DUP6 SUB SLT ISZERO PUSH2 0x666 JUMPI PUSH2 0x665 PUSH2 0x561 JUMP JUMPDEST JUMPDEST PUSH0 PUSH2 0x673 DUP6 DUP3 DUP7 ADD PUSH2 0x5AB JUMP JUMPDEST SWAP3 POP POP PUSH1 0x20 PUSH2 0x684 DUP6 DUP3 DUP7 ADD PUSH2 0x63C JUMP JUMPDEST SWAP2 POP POP SWAP3 POP SWAP3 SWAP1 POP JUMP JUMPDEST PUSH0 DUP2 MLOAD SWAP1 POP SWAP2 SWAP1 POP JUMP JUMPDEST PUSH0 DUP3 DUP3 MSTORE PUSH1 0x20 DUP3 ADD SWAP1 POP SWAP3 SWAP2 POP POP JUMP JUMPDEST DUP3 DUP2 DUP4 MCOPY PUSH0 DUP4 DUP4 ADD MSTORE POP POP POP JUMP JUMPDEST PUSH0 PUSH1 0x1F NOT PUSH1 0x1F DUP4 ADD AND SWAP1 POP SWAP2 SWAP1 POP JUMP JUMPDEST PUSH0 PUSH2 0x6D0 DUP3 PUSH2 0x68E JUMP JUMPDEST PUSH2 0x6DA DUP2 DUP6 PUSH2 0x698 JUMP JUMPDEST SWAP4 POP PUSH2 0x6EA DUP2 DUP6 PUSH1 0x20 DUP7 ADD PUSH2 0x6A8 JUMP JUMPDEST PUSH2 0x6F3 DUP2 PUSH2 0x6B6 JUMP JUMPDEST DUP5 ADD SWAP2 POP POP SWAP3 SWAP2 POP POP JUMP JUMPDEST PUSH0 PUSH1 0x20 DUP3 ADD SWAP1 POP DUP2 DUP2 SUB PUSH0 DUP4 ADD MSTORE PUSH2 0x716 DUP2 DUP5 PUSH2 0x6C6 JUMP JUMPDEST SWAP1 POP SWAP3 SWAP2 POP POP JUMP JUMPDEST PUSH2 0x727 DUP2 PUSH2 0x61D JUMP JUMPDEST DUP3 MSTORE POP POP JUMP JUMPDEST PUSH0 PUSH1 0x20 DUP3 ADD SWAP1 POP PUSH2 0x740 PUSH0 DUP4 ADD DUP5 PUSH2 0x71E JUMP JUMPDEST SWAP3 SWAP2 POP POP JUMP JUMPDEST PUSH0 PUSH1 0x20 DUP3 DUP5 SUB SLT ISZERO PUSH2 0x75B JUMPI PUSH2 0x75A PUSH2 0x561 JUMP JUMPDEST JUMPDEST PUSH0 PUSH2 0x768 DUP5 DUP3 DUP6 ADD PUSH2 0x63C JUMP JUMPDEST SWAP2 POP POP SWAP3 SWAP2 POP POP JUMP JUMPDEST PUSH2 0x77A DUP2 PUSH2 0x584 JUMP JUMPDEST DUP3 MSTORE POP POP JUMP JUMPDEST PUSH0 PUSH1 0x20 DUP3 ADD SWAP1 POP PUSH2 0x793 PUSH0 DUP4 ADD DUP5 PUSH2 0x771 JUMP JUMPDEST SWAP3 SWAP2 POP POP JUMP JUMPDEST PUSH32 0x4E487B7100000000000000000000000000000000000000000000000000000000 PUSH0 MSTORE PUSH1 0x11 PUSH1 0x4 MSTORE PUSH1 0x24 PUSH0 REVERT JUMPDEST PUSH0 PUSH2 0x7D0 DUP3 PUSH2 0x61D JUMP JUMPDEST SWAP2 POP PUSH2 0x7DB DUP4 PUSH2 0x61D JUMP JUMPDEST SWAP3 POP DUP3 DUP3 ADD SWAP1 POP DUP1 DUP3 GT ISZERO PUSH2 0x7F3 JUMPI PUSH2 0x7F2 PUSH2 0x799 JUMP JUMPDEST JUMPDEST SWAP3 SWAP2 POP POP JUMP JUMPDEST PUSH32 0x4E487B7100000000000000000000000000000000000000000000000000000000 PUSH0 MSTORE PUSH1 0x32 PUSH1 0x4 MSTORE PUSH1 0x24 PUSH0 REVERT INVALID LOG2 PUSH5 0x6970667358 0x22 SLT KECCAK256 0xAA LOG1 SWAP9 DUP4 0xAB 0xA6 RETURNDATASIZE DELEGATECALL 0xD8 SWAP3 ADD LOG0 0xB7 PUSH4 0x6CC1BFCA PUSH8 0xE51DD6F201BF88AE ORIGIN 0xB5 ADDRESS BASEFEE 0x2B PUSH5 0x736F6C6343 STOP ADDMOD 0x1E STOP CALLER "
				},
				"gasEstimates": {
					"creation": {
						"codeDepositCost": "428000",
						"executionCost": "459",
						"totalCost": "428459"
					},
					"external": {
						"addressArr(uint256)": "4988",
						"exist(address)": "2811",
						"getVotes(address)": "2850",
						"resetVotes()": "infinite",
						"vote(address,uint256)": "infinite",
						"votes(address)": "2889"
					}
				},
				"methodIdentifiers": {
					"addressArr(uint256)": "ac6ab9ed",
					"exist(address)": "4dfefc4b",
					"getVotes(address)": "9ab24eb0",
					"resetVotes()": "b9830ff1",
					"vote(address,uint256)": "5f74bbde",
					"votes(address)": "d8bff5a5"
				}
			},
			"storageLayout": {
				"storage": [
					{
						"astId": 5,
						"contract": "task1/Voting.sol:Voting",
						"label": "votes",
						"offset": 0,
						"slot": "0",
						"type": "t_mapping(t_address,t_uint256)"
					},
					{
						"astId": 9,
						"contract": "task1/Voting.sol:Voting",
						"label": "exist",
						"offset": 0,
						"slot": "1",
						"type": "t_mapping(t_address,t_bool)"
					},
					{
						"astId": 12,
						"contract": "task1/Voting.sol:Voting",
						"label": "addressArr",
						"offset": 0,
						"slot": "2",
						"type": "t_array(t_address)dyn_storage"
					}
				],
				"types": {
					"t_address": {
						"encoding": "inplace",
						"label": "address",
						"numberOfBytes": "20"
					},
					"t_array(t_address)dyn_storage": {
						"base": "t_address",
						"encoding": "dynamic_array",
						"label": "address[]",
						"numberOfBytes": "32"
					},
					"t_bool": {
						"encoding": "inplace",
						"label": "bool",
						"numberOfBytes": "1"
					},
					"t_mapping(t_address,t_bool)": {
						"encoding": "mapping",
						"key": "t_address",
						"label": "mapping(address => bool)",
						"numberOfBytes": "32",
						"value": "t_bool"
					},
					"t_mapping(t_address,t_uint256)": {
						"encoding": "mapping",
						"key": "t_address",
						"label": "mapping(address => uint256)",
						"numberOfBytes": "32",
						"value": "t_uint256"
					},
					"t_uint256": {
						"encoding": "inplace",
						"label": "uint256",
						"numberOfBytes": "32"
					}
				}
			},
			"userdoc": {
				"kind": "user",
				"methods": {},
				"version": 1
			}
		}
	}
}